:03000000020EFFEE
:0C0EFF00787FE4F6D8FD758120020D1804
:100C860053696D706C69666965643A0031003000BD
:100C96004127000041004227002B00420043270065
:100CA6004300412742270041274200414227004195
:100CB6004200412743270041274300414327004183
:100CC600430042274327004227430042432700426E
:100CD600430041274227432700412742274300413B
:100CE600274243270041274243004142274327002A
:100CF6004142274300414243270041424300456E9B
:100D0600746572204D696E7465726D733A004D3A62
:020D16002000BB
:040EB3007F0A7E0034
:100EB700E4FDFCC3ED9FEC9E5015E4FBFA0BBB0071
:0F0EC700010AEB64644A70F50DBD00010C80E474
:010ED60022F9
:100ED7008F90C2A0C2A1D2A27F017E00120EB7C21C
:040EE700A2020EB79E
:100EEB008F90D2A0C2A1D2A27F017E00120EB7C2F8
:040EFB00A2020EB78A
:100E8E008B1E8A1F8920AB1EAA1FA920120D8460FB
:100E9E00130520E5207002051F14F9120D84FF12B0
:050EAE000EEB80E222C2
:0C0F0B007F01120ED77F027E00020EB79D
:100E26007F38120ED77F027E00120EB77F0C120E8D
:100E3600D77F027E00120EB77F06120ED77F027E84
:100E460000120EB71F120ED77F027E00120EB77F5A
:0B0E560080120ED77F027E00020EB754
:100BC700E4F511D2B6D2B5D2B4C2B0D2B3D2B2D252
:100BD700B120B40C7F0AFE120EB730B4FD7F31226C
:100BE70020B509120EB330B5FD7F322220B60912A7
:100BF7000EB330B6FD7F3322C2B1D2B3D2B2D2B078
:100C070020B409120EB330B4FD7F342220B5091287
:100C17000EB330B5FD7F352220B609120EB330B6BC
:100C2700FD7F3622C2B2D2B3D2B1D2B020B40912FC
:100C37000EB330B4FD7F372220B509120EB330B59D
:100C4700FD7F382220B609120EB330B6FD7F392258
:100C5700C2B3D2B2D2B1D2B020B409120EB330B4FB
:100C6700FD7F2A2220B509120EB330B5FD7F302251
:0E0C770020B609120EB330B6FD7F23227F0097
:010C8500224C
:080DDC008B158A1689178D188A
:100DE400E4FFFEC3E5186480F8EE6480985032ABEB
:100DF40015AA16A917EEFD3395E08D82F583120D21
:100E04009DFDC3648094804015D3ED648094875025
:100E14000DA8057401088002C333D8FC42070E8074
:010E2400C20B
:010E250022AA
:100E61008B158A168917AB1BAA1CA91D120D84703C
:100E710009AB18AA19A91A120E8EAB15AA16A91731
:0D0E8100120E8EAB1BAA1CA91DE4020DCAA7
:10080000120DDC8F11E4F512751301120F0B7F80AE
:10081000120ED77BFF7A0C7986120E8E7FC0120ED5
:10082000D7E511B4FF087BFF7A0C7992800AE511B5
:1008300070097BFF7A0C7994020E8EE511540FFF3C
:10084000BF0F1E7518FF75190C751A99751B007569
:100850001C00751D137BFF7A0C7996120E614312F2
:100860000FE51154F0FFBFF01E7518FF75190C75D8
:100870001A99751B00751C00751D137BFF7A0C7986
:100880009A120E614312F0E5115433FFBF331E7507
:1008900018FF75190C751A9F751B00751C00751DC6
:1008A000137BFF7A0C799C120E61431233E51154CD
:1008B000CCFFBFCC1E7518FF75190C751A9F751BE0
:1008C00000751C00751D137BFF7A0C79A1120E6157
:1008D0004312CCE5115455FFBF551E7518FF75190D
:1008E0000C751A9F751B00751C00751D137BFF7A14
:1008F0000C79A3120E61431255E51154AAFFBFAA49
:100900001E7518FF75190C751A9F751B00751C0054
:10091000751D137BFF7A0C79A6120E614312AAE5AE
:10092000115403FFBF0323E5125403701D7518FF14
:1009300075190C751A9FF51B751C00751D137BFF2F
:100940007A0C79A8120E61431203E511540CFFBF13
:100950000C23E512540C701D7518FF75190C751ACF
:100960009FF51B751C00751D137BFF7A0C79AD126A
:100970000E6143120CE5115430FFBF3023E51254D1
:1009800030701D7518FF75190C751A9FF51B751CB5
:1009900000751D137BFF7A0C79B1120E6143123082
:1009A000E51154C0FFBFC023E51254C0701D751877
:1009B000FF75190C751A9FF51B751C00751D137BAF
:1009C000FF7A0C79B5120E614312C0E5115405FF90
:1009D000BF0523E5125405701D7518FF75190C75B8
:1009E0001A9FF51B751C00751D137BFF7A0C79B8D7
:1009F000120E61431205E511540AFFBF0A23E512E6
:100A0000540A701D7518FF75190C751A9FF51B7522
:100A10001C00751D137BFF7A0C79BD120E61431209
:100A20000AE5115450FFBF5023E5125450701D7554
:100A300018FF75190C751A9FF51B751C00751D1391
:100A40007BFF7A0C79C1120E61431250E51154A05C
:100A5000FFBFA023E51254A0701D7518FF75190C77
:100A6000751A9FF51B751C00751D137BFF7A0C7999
:100A7000C5120E614312A0E5115411FFBF1123E509
:100A8000125411701D7518FF75190C751A9FF51BFE
:100A9000751C00751D137BFF7A0C79C8120E61431B
:100AA0001211E5115422FFBF2223E5125422701DBA
:100AB0007518FF75190C751A9FF51B751C00751DAF
:100AC000137BFF7A0C79CD120E61431222E511548B
:100AD00044FFBF4423E5125444701D7518FF751977
:100AE0000C751A9FF51B751C00751D137BFF7A0C86
:100AF00079D1120E61431244E5115488FFBF882357
:100B0000E5125488701D7518FF75190C751A9FF53C
:100B10001B751C00751D137BFF7A0C79D5120E61B5
:100B2000431288E4F5147E007401A814088005C3FC
:100B300033CE33CED8F9FFEF5511607CEF551270EC
:100B400077E51370097BFF7A0C799F120E8EE514FE
:100B5000B408005060900B5CF8282873020B7402F4
:100B60000B7C020B84020B8C020B94020B9C020B7D
:100B7000A4020BAC7BFF7A0C79D880367BFF7A0C11
:100B800079DF802E7BFF7A0C79E580267BFF7A0C5B
:100B900079EB801E7BFF7A0C79F080167BFF7A0C54
:100BA00079F6800E7BFF7A0C79FB80067BFF7A0D4D
:100BB0007900120E8EE4F5130514C3E514648094D5
:060BC000885003020B2621
:010BC600220C
:100D1800E4F510F590120E267F80120ED77BFF7A2D
:100D28000D7904120E8E7FC0120ED77BFF7A0D79D3
:100D380014120E8E120BC7A907E9C394304022E99A
:100D4800D39437501CC3E510648094885013E92469
:100D5800D0FFAE10051074082EF8A607AF01120ECA
:100D6800EBE9642360097F327E00120EB780C57BF1
:0C0D7800007A007908AD1012080080FE1F
:100D8400BB010689828A83E0225002E722BBFE026D
:090D9400E32289828A83E49322A0
:100D9D00BB010CE58229F582E5833AF583E022500B
:100DAD0006E92582F8E622BBFE06E92582F8E22255
:0D0DBD00E58229F582E5833AF583E493226F
:100DCA00BB010689828A83F0225002F722BBFE0108
:020DDA00F32202
:00000001FF
